:100ECE00E4FDEDC39FEE6480F8748098500FE4FC4F
:0D0EDE00E4FB0BBB0AFC0CBC50F60D80E5DC
:010EEB0022E4
:100D6900E4F522F523E523AE227802C333CE33CE50
:100D7900D8F92420F58274053EF5831204C41203C0
:100D89005FAD07E523AE227802C333CE33CED8F95F
:100D99002420F582E43EF583EDF00523E523700276
:0A0DA9000522B440C0E522B401BBEE
:010DB300221D
:0E0F5C007B007A007914E4F5267D0C020DB4BA
:0E0F6A007B007A007914E4F5267D0C020C4120
:100D1C00C2AF75B0FF7590FF120F9E900000E4F00B
:100D2C00A3F0A3F0A3F0A3F090000804F090000C43
:100D3C0004F0900014E4F090001804F090001C04EF
:100D4C00F0120F5C120D69758901E4F58A758CB887
:0D0D5C00D2A9C2B9D28CD2AFD2AAD28A22BB
:05000E008F0F8D0B2295
:1008A100EDC394004006EDD394044002E4FDEF143F
:1008B1006044046003020936900014E090051D9322
:1008C100900000F0900015E090050893900001F071
:1008D100900016E090051393900002F0900017E04D
:1008E10090050893900003F0200003020979ED7050
:1008F100030209798036900018E090051D9390005D
:1009010000F0900019E090050893900001F090002C
:100911001AE090050893900002F090001BE090050A
:100921000893900003F030004FED604C900512E405
:10093100938D82803F90001CE090051D93900000F4
:10094100F090001DE090051393900001F090001EBF
:10095100E090050893900002F090001FE0900508D8
:1009610093900003F0300010ED600D900512E493B8
:10097100AE058E82758300F0E4FF8F82758300E0FF
:10098100F522E4FEC296D2960EBE08F80FBF04EA25
:04099100D295C295A4
:01099500223F
:100A7700EF14602C047052900004E090051D9390D1
:100A87000000F0900005E090050893900001F090B9
:100A97000006E090051393900002F0900007805045
:100AA700900008E090051D93900000F0900009E089
:100AB70090050893900001F090000AE090050893D4
:100AC700900002F090000B802790000CE090051D2D
:100AD70093900000F090000DE090051393900001B3
:100AE700F090000EE090050893900002F090000F40
:100AF700E090050893900003F0E4FF8F8275830070
:100B0700E0F522E4FEC296D2960EBE08F80FBF04A7
:050B1700EAD295C29531
:010B1C0022B6
:10066000900006E075F00AA4FDACF0900005E0757E
:10067000F064A42DFFE5F03CFE900007E07C002F25
:10068000F523EC3EF52290000AE075F00AA4FDACDB
:10069000F0900009E075F064A42DFFE5F03CFE90B9
:1006A000000BE07C002FF525EC3EF52490000EE0D9
:1006B00075F00AA4FDACF090000DE075F064A42D77
:1006C000FFE5F03CFE90000FE07C002FF527EC3EAC
:1006D000F526900016E075F00AA4FDACF090001528
:1006E000E075F064A42DFFE5F03CFE900017E07C7F
:1006F000002FF529EC3EF52890001AE075F00AA4C9
:10070000FDACF0900019E075F064A42DFFE5F03C1D
:10071000FE90001BE07C002FF52BEC3EF52A9000AC
:100720001EE075F00AA4FDACF090001DE075F064C9
:10073000A42DFFE5F03CFE90001FE07C002FFFECB5
:100740003EFEC3E5239529E52295285014C3E525EF
:10075000952BE524952A5009C3E5279FE5269E4061
:100760002DC3E5239529E52295284004E4FD801A50
:10077000C3E525952BE524952A40047D01800BC314
:10078000E5279FE5269E400C7D027F018003E4FD66
:04079000FF12000E46
:010794002242
:060996008B328A33893424
:10099C00E4F535C3E5359440748094814003020A34
:1009AC0074AB32AA33A9341204A475F004E535A44F
:1009BC002420F582E5F03405F5831204D41202B438
:1009CC0060054003020A6FAB32AA33A9341204A4A7
:1009DC0075F004E535A42420F582E5F03405F583A3
:1009EC001204D4120019C004C005C006C00775F06B
:1009FC0004E535A42424F582E5F03405F5831204CE
:100A0C00D475F004E535A42420F582E5F03405F521
:100A1C00831204C4120019A804A905AA06AB07D0B6
:100A2C0007D006D005D004120217E4FBFA79A0789F
:100A3C004012010EC004C005C006C007AF357E00D1
:100A4C007C007D0512042FAC06AD07E4120326D002
:100A5C0003D002D001D00012001D12035F8E368F1E
:0A0A6C00378005053502099FAF37FA
:010A7600225D
:020795008F22B1
:10079700120E298F23E52214700302082314700315
:1007A70002083224026003020838AC23E412032B48
:1007B700E4FBFA79A0783C12010E8F298E288D2749
:1007C7008C267B007A40791C78461202178F2D8E73
:1007D7002C8D2B8C2AAB29AA28A927A826E4FFFE53
:1007E7007DA07C40120019AB2DAA2CA92BA82A1298
:1007F70002178F318E308D2F8C2EE4FBFA797A78A1
:10080700441202178F318E308D2F8C2E7B007A0089
:10081700792E1209967524008F258015E5232471FA
:1008270075F00584752400F5258006752400852359
:1008370025AE24AF257C007D6412044175F004E5E4
:1008470022A42405F582E435F0F583EFF0AE24AF5A
:10085700257C007D0A1204417C007D0A1204417543
:10086700F004E522A42406F582E435F0F583EDF0E3
:10087700AE24AF257C007D641204417E007F0ACF41
:10088700CDCFCECCCE12044175F004E522A42407C7
:09089700F582E435F0F583EDF083
:0108A0002235
:100BC000E4F521120D1CE509704FFF12079512067E
:100BD00060E4FF120A77E50E6007E509B401F780CB
:100BE00038050E7F011207951206607F01120A7701
:100BF000E50E6007E509B401F7801E050E7F0212BD
:100C000007951206607F02120A77E50E6007E50974
:100C1000B401F78004050E801BE4FDFF12000EE511
:100C20000A75F00384AFF0E50D75F00384E5F00478
:100C3000FD1208A1E50C6401708CF50C120F6A809E
:010C4000852E
:10050800149F381A9352501F1012FF048F280A8321
:1005180042400F000274F4704202031241FD883118
:1005280041F7388641F1158141EB1DE741E550B1AE
:1005380041DFAC0841DA2F1B41D4D8AE41CFA752D6
:1005480041CA9A6B41C5B05541C0E87341BC418965
:1005580041B7BA9341B352BD41AF093741AADCFB59
:1005680041A6CD3641A2D8E2419EFF63419B401A85
:1005780041979A0241940C4A41909687418D37E9F8
:100588004189EFD24186BDA54183A0904180982B37
:10059800417B47454175851F416FE910416A71DE0E
:1005A80041651DE7415FED29415ADE014155EF9E46
:1005B800415120C5414C71764147E00D41436BBA2A
:1005C800413F147B413AD8454136B7804132B08A21
:1005D800412EC361412AEF35412732CA41238E2279
:1005E80041200000411C8866411926184115D91779
:1005F8004112A090410F7BB3410C6A7F41096C22E4
:10060800410680344103A64C4100DD9840FC4B5E16
:1006180040F6FD2240F1CED940ECC08340E7D07DC2
:1006280040E2FDF440DE481740D9AEE640D530BE82
:1006380040D0CD9F40CC84B640C8553240C43E42DD
:1006480040C03F1440BC587940B887FD40B4CD9FA6
:0806580040B1295F40AD9A6B2F
:03000B00020CB92B
:100CB900C0E0C0F0C0D0758A00758CB8050EE50E8D
:100CC90075F01484E5F07002B200E50EB46407759E
:100CD9000E00B2010508E50F7004D2B4802EE50BB1
:100CE90014601514602024027022E50E75F0148436
:100CF900E5F07018B2B48014E50E75F03C84E5F0A7
:100D0900700AB2B48006E50E7002B2B4D0D0D0F049
:030D1900D0E032F5
:03001300020B1DC0
:0D0B1D00C0E0C0F0C083C082C0D075D01011
:100B2A0030B303020BB57F147E00120ECE20B37BC6
:100B3A00908000E0540F24F9606524FC601C24FEB8
:100B4A006010147066050A750901E4FDFF12000EB3
:100B5A008059E5096055050D8051E509604DE50AA2
:100B6A0075F00384E5F075F004A4FFAEF0E50D75A9
:100B7A00F003847C00EF25F0FFEC3EFE74152FF5A0
:100B8A0082E43EF583E0FD0DAC15EDD394094002F5
:100B9A007D0074152FF582E43EF583EDF0800C7527
:0B0BAA000A00750D00750900750C01B4
:0B0BB500D0D0D082D083D0F0D0E0324E
:06000300E4FF0FBF0FFC3B
:0100090022D4
:100F0A00EF14600C14600E2402700EC297C2B52250
:0A0F1A00D297C2B522C297D2B522C9
:020E2900AD0713
:100E2B00C292120003AF05120F0A120003E4FDEE8B
:100E3B0025E0FEC293120003D293120003A294E4A6
:0B0E4B003342060DBD08E8D292AF064E
:010E56002279
:080F2400D291D2907F3C7E00C7
:0C0F2C00EF4E6007EF1F70F81E80F522EA
:0A0F9E00D290120003D2910200036A
:100F4B00120F24C291120F28C2907F3C7E00020F19
:010F5B002C69
:100F3800C291120F26D291120F28C2907F3C7E00D8
:030F4800020F2C69
:080E8500120F4B7FA0120EECCE
:100E8D00D291D2907F1E7E00120F2CA291B39203AD
:0E0E9D007F1E7E00120F2CC290120F28A2039F
:010EAB002224
:0E0F7800C291120F26C2907F3C7E00020F2C09
:0C0F8600120F24C2907F3C7E00020F2C52
:020EEC00AD0750
:100EEE00E4FCEDA804088002C333D8FC30E70512F9
:0B0EFE000F868003120F780CBC08E781
:010F090022C5
:100E5700E4FDFCD291D2907F0A7E00120F2CA29162
:100E670092037F0A7E00120F2CC290ED25E0FD3021
:0D0E7700030543050180000CBC08D8AF0541
:010E8400224B
:040EAC00AB05AA07E1
:100EB000D204120E859204AF02120EEC120E8D9225
:0E0EC00004AF03120EEC120E8D9204020F38D6
:020DF900AB0746
:100DFB00D205120E859205AF03120EEC120E8D92D8
:100E0B0005120F4B7FA1120EEC120E8D9205120ED6
:0D0E1B0057AD07120E8D9205120F38AF056E
:010E280022A7
:080DB4008B228A2389248D257E
:100DBC00D202120E859202AF26120EEC120E8D92FA
:100DCC0002E4F527E527C39525501FAB22AA23A9DA
:100DDC00248527827583001203E0FF120EEC120E9D
:0D0DEC008D4003120F38052780DA020F3802
:080C41008B228A2389248D25F2
:100C4900D202E4F527F528120E859202AF26120E7C
:100C5900EC120E8D9202120F4B7FA1120EEC120EA6
:100C69008D9202E4F527F528C3E52895257480F8C7
:100C79006527985038120E57AB22AA23A924852834
:100C890082852783EF12040DE52524FFFFE434FF55
:100C9900FEEF65287003EE65276005120F78800363
:100CA900120F860528E52870BF052780BB020F387B
:100016000203CBE86480F8E933E83360110460F04A
:10002600ED33EC337009E8FCE9FDEAFEEBFF220450
:1000360060DED3EB9FEA9EE99DE8C2E78CF0C2F74B
:1000460095F0400CE8CCF8E9CDF9EACEFAEBCFFB17
:1000560012039685D0F05804700320D5B3E80470D7
:10006600075002B2D50203D592D5EC0460F7E4CC72
:10007600C0E0C398F8603B94186008400DD0E0FBE0
:100086000203ADE4FBFAC9FC8028E830E406E4C9C3
:10009600FBE4CAFCE830E305E4C9CACBFCE8540734
:1000A6006010F8C3E913F9EA13FAEB13FBEC13FC3F
:1000B600D8F130F52FC3E49CFCEF9BFFEE9AFEEDE2
:1000C60099FDD0E0FBEF4E4D4C701222DB0302038C
:1000D600D2EC2CFCEF33FFEE33FEED33FDED30E7D3
:1000E600EB0203ADEF2BFFEE3AFEED39FDD0E0FB60
:1000F60050130BBB00030203D5ED13FDEE13FEEF09
:0801060013FFEC13FC0203AD32
:10010E00EC4D6011E8497017ED33EC3304600DE4EB
:10011E00FCFFFEFD22E933E8330470F80203CB1234
:10012E00039658046009E4CC248150062850090235
:10013E0003D52840030203D2C0E0EB4A7044B980D5
:10014E0006D0E0FB0203C1EF4E701CBD8008EBFF32
:10015E00EAFEE9FD80EBE98DF0A4FEE5F00201F781
:10016E00E9CDF9EAFEEBFFEF89F0A4FCE5F0CE89CC
:10017E00F0A42EFFE435F0CD89F0A42DFEE435F089
:10018E008067EF4E7005BD80D780C3EF8BF0A4ACB7
:10019E00F0EE8BF0A42CFCE435F0F8EF8AF0A42CF2
:1001AE00E5F038FCE433CB8DF0A42CFCE5F03BF805
:1001BE00EE8AF0A42CFCE5F038F8E433CF89F0A4F5
:1001CE002CFCE5F038CF3400CE89F0A42FFFE5F0FB
:1001DE003EFEE433C98DF0A42EFEE5F039CD8AF053
:1001EE00A42FFFE5F03EFEE43DFD33D0E0FB5007CB
:1001FE000BBB000F0203D5EC2CFCEF33FFEE33FEEE
:06020E00ED33FD0203AD1B
:100214000203D5EC5D046005E8590470030203CBC6
:10022400120396580460F6EC4860F2EC7004FDFE8C
:10023400FF22C860DB2481C85009C39860025006BD
:100244000203D29850CAF582E9294B4A7005AB8261
:100254000203C175F0007C1A7880C3EF9BEE9AED1F
:1002640099400DC3EF9BFFEE9AFEED99FDE842F035
:10027400DC23ACF0D0E0FFD0E0FED0E0FDAB822088
:10028400E7101BEB60BAEC2CFCEF33FFEE33FEED12
:1002940033FD0203ADE803F830E705C0F075F00064
:1002A400EF2FFFEE33FEED33FD40B830E7C280AAF6
:1002B40074F8CC6480CCC86480C8F582046043C3FD
:1002C400EB9FF5F0EA9E42F0E99D42F0E89C45F090
:1002D40060305018E5825FFFE582F42B5582FB50B5
:1002E400210ABA001D09B90019088016E5825BFBD2
:1002F400E582F42F5582FF50090EBE00050DBD00A6
:10030400010CC3EB9FF5F0EA9E42F0E99D42F0E850
:0D0314009C45F06007CC4820E701B3EC22C7
:1003210075F020800E75F010800575F0087D007E57
:10033100007F003392D530D503120496EC33401080
:10034100EF33FFEE33FEED33FDEC33FCD5F0ED2260
:0E035100E5F0247EA2D513CC92E7CDCEFF229C
:10035F00EDD2E7CD33EC3392D524814006E4FFFE96
:10036F00FDFC22FCE4CFCECDCC24E0501174FF80F5
:10037F00EDC3CC13CCCD13CDCE13CECF13CF047092
:07038F00F030D5DE020496F8
:10039600E9D2E7C933E833F892D5EDD2E7CD33ECAD
:0703A60033FC5002B2D52226
:1003AD00EC30E7100FBF000C0EBE00080DBD0004B1
:1003BD000BEB6014A2D5EB13FCED92E7FD2274FF5D
:1003CD00FCFDFEFF22E480F8A2D574FF13FC7D80B6
:0303DD00E480EFCA
:03000000020F925A
:0C0F9200787FE4F6D8FD758137020BC0B3
:1003E000BB010CE58229F582E5833AF583E02250D2
:1003F00006E92582F8E622BBFE06E92582F8E2221C
:0D040000E58229F582E5833AF583E4932235
:10040D00F8BB010DE58229F582E5833AF583E8F025
:10041D00225006E92582C8F622BBFE05E92582C8D1
:02042D00F222B9
:10042F00EF8DF0A4A8F0CF8CF0A428CE8DF0A42EE1
:02043F00FE229B
:10044100BC000BBE0029EF8DF084FFADF022E4CC9F
:10045100F875F008EF2FFFEE33FEEC33FCEE9DEC68
:10046100984005FCEE9DFE0FD5F0E9E4CEFD22EDAE
:10047100F8F5F0EE8420D21CFEADF075F008EF2FF8
:10048100FFED33FD4007985006D5F0F222C398FDE9
:050491000FD5F0EA2286
:0E049600C3E49FFFE49EFEE49DFDE49CFC2277
:1004A400BB010789828A830204F05005E9F802043B
:1004B400E4BBFE05E9F80204FC89828A830204C4D1
:1004C400E493FC740193FD740293FE740393FF227E
:1004D400E493F8740193F9740293FA740393FB227E
:0C04E400E6FC08E6FD08E6FE08E6FF2244
:0C04F000E0FCA3E0FDA3E0FEA3E0FF227F
:0C04FC00E2FC08E2FD08E2FE08E2FF223C
:00000001FF
