:100AE400203C214201333341C91EB8419F33334175
:100AF4007CF5C3414B5C294120000041011AA04010
:100B0400D0937540AA1CAC408CF5C34065A36E40DD
:0F0B14003DF3B6402126E94006B8523FDD916817
:100B4600E4FDEDC39FEE6480F8748098500FE4FCDA
:0D0B5600E4FB0BBB0AFC0CBC50F60D80E567
:010B6300226F
:10099C00C2AF75B0FF7590FF900000E4F0A3F0A318
:1009AC00F0A3F0A3F0A37403F0A3F0A3F0A37401DD
:1009BC00F0A3E4F0A3F0A304F0A304F0A37404F0F8
:1009CC00A37409F0A37405F0900014E4F0A304F0F0
:1009DC00A37406F0A37403F0A37401F0A3F0A37442
:1009EC0007F0A3E4F0A37402F0A37409F0A3F0A33E
:1009FC007405F0758901E4F58A758CB8D2A9C2B971
:090A0C00D28CD2AFD2AAD28A2208
:050003008F0E8D0B22A1
:10054E00EDC394004006EDD394044002E4FDEF1495
:10055E0060440460030205E3900014E0900B939353
:10056E00900000F0900015E0900B7E93900001F04B
:10057E00900016E0900B8993900002F0900017E027
:10058E00900B7E93900003F0200003020626ED7080
:10059E00030206268036900018E0900B939390008D
:1005AE0000F0900019E0900B7E93900001F0900007
:1005BE001AE0900B7E93900002F090001BE0900BDF
:1005CE007E93900003F030004FED604C900B88E46A
:1005DE00938D82803F90001CE0900B9393900000CF
:1005EE00F090001DE0900B8993900001F090001E9A
:1005FE00E0900B7E93900002F090001FE0900B7E37
:10060E0093900003F0300010ED600D900B88E49392
:10061E00AE058E82758300F0E4FF8F82758300E055
:10062E00F55FE4FEC296D2960EBE08F80FBF04EA3E
:04063E00D295C295FA
:010642002295
:1007CF00EF14602C047052900004E0900B93939000
:1007DF000000F0900005E0900B7E93900001F090E8
:1007EF000006E0900B8993900002F0900007805074
:1007FF00900008E0900B9393900000F0900009E0B8
:10080F00900B7E93900001F090000AE0900B7E9386
:10081F00900002F090000B802790000CE0900B935B
:10082F0093900000F090000DE0900B8993900001E1
:10083F00F090000EE0900B7E93900002F090000F6E
:10084F00E0900B7E93900003F0E4FF8F827583009E
:10085F00E0F55FE4FEC296D2960EBE08F80FBF0415
:05086F00EAD295C295DC
:010874002261
:10041900900006E075F00AA4FDACF0900005E075C7
:10042900F064A42DFFE5F03CFE900007E07C002F6E
:10043900F560EC3EF55F90000AE075F00AA4FDACAA
:10044900F0900009E075F064A42DFFE5F03CFE9002
:10045900000BE07C002FF562EC3EF56190000EE0A8
:1004690075F00AA4FDACF090000DE075F064A42DC0
:10047900FFE5F03CFE90000FE07C002FF564EC3EB8
:10048900F563900016E075F00AA4FDACF090001534
:10049900E075F064A42DFFE5F03CFE900017E07CC8
:1004A900002FF566EC3EF56590001AE075F00AA498
:1004B900FDACF0900019E075F064A42DFFE5F03C67
:1004C900FE90001BE07C002FF568EC3EF56790007C
:1004D9001EE075F00AA4FDACF090001DE075F06413
:1004E900A42DFFE5F03CFE90001FE07C002FFFECFF
:1004F9003EFEC3E5609566E55F95655014C3E56208
:100509009568E56195675009C3E5649FE5639E4079
:100519002DC3E5609566E55F95654004E4FD801AA5
:10052900C3E5629568E561956740047D01800BC369
:10053900E5649FE5639E400C7D027F018003E4FD35
:04054900FF1200039A
:01054D00228B
:08070E008F6D8E6C8D6B8C6AFF
:10071600E4F56EE56E25E025E02421F8120400AB31
:100726006DAA6CA96BA86A1202B460025003020794
:10073600B8E56E25E025E02421F812040CC000E59A
:100746006E25E025E02425F8120400D000120019D9
:10075600C004C005C006C007E56E25E025E02421DB
:10076600F812040CAF6DAE6CAD6BAC6A120019D00A
:1007760003D002D001D000120217E4FBFA79A07868
:100786004012010EC004C005C006C007AF6E7E0051
:100796007C007D051203E0AC06AD07E4120326D00B
:1007A60003D002D001D00012001D8F728E718D70A1
:1007B6008C6F056EE56E640F6003020719AF72AEAB
:0807C60071AD70AC6F12035F0E
:0107CE002208
:020643008F5FC7
:10064500120B248F60E55F14605B146064240270F4
:1006550063AC60E412032BE4FBFA79A0783C120149
:100665000E8F658E648D638C627B007A40791C7871
:10067500461202178F698E688D678C66AB65AA6412
:10068500A963A862E4FFFE7DA07C40120019AB6956
:10069500AA68A967A86612021712070EEF75F00A75
:1006A500A4F561800FE560247175F00584F561801E
:1006B50003856061E56175F06484FF75F004E55FAD
:1006C500A42405F582E435F0F583EFF0E56175F0D6
:1006D5000A8475F00A84AFF075F004E55FA424067A
:1006E500F582E435F0F583EFF0E56175F06484E5B6
:1006F500F075F00A84AFF075F004E55FA42407F502
:0807050082E435F0F583EFF00A
:01070D0022C9
:100A1500E4F55E12099CE509704FFF1206431204C6
:100A250019E4FF1207CFE50D6007E509B401F7806A
:100A350038050D7F011206431204197F011207CFF5
:100A4500E50D6007E509B401F7801E050D7F02126B
:100A550006431204197F021207CFE50D6007E50969
:100A6500B401F78004050D80ADE50A75F00384AF88
:100A7500F0E50C75F00384E5F004FD12054E809653
:100B7E00149F381A9352501F1012FF048F280A83A5
:080B8E0042400F000274F470F4
:03000B00020A8561
:100A8500C0E0C0F0C0D0758A00758CB8050DE50DC5
:100A950075F01484E5F07002B200E50DB4640775D5
:100AA5000D00B2010508E50E602EE50B1460151466
:100AB500602024027022E50D75F01484E5F07018AD
:100AC500B2B48014E50D75F03C84E5F0700AB2B45B
:0F0AD5008006E50D7002B2B4D0D0D0F0D0E03280
:030013000208756B
:0D087500C0E0C0F0C083C082C0D075D010BC
:10088200908000E0F55D7FC87E00120B46E55D5466
:100892000F24F9606524FC601C24FE601014706350
:1008A200050A750901E4FDFF1200038056E509609F
:1008B20052050C804EE509604AE50A75F00384E5AD
:1008C200F075F004A4FFAEF0E50C75F003847C0033
:1008D200EF25F0FFEC3EFE74152FF582E43EF58322
:1008E200E0FD0DAC15EDD3940940027D0074152F87
:1008F200F582E43EF583EDF08009750A00750C007F
:0309020075090074
:0B090500D0D0D082D083D0F0D0E03200
:100B6400EF14600C14600E2402700EC297C2B522FA
:0A0B7400D297C2B522C297D2B52273
:100B2400C29200120B6400E4FFEE25E0FEC29300C3
:100B3400D29300A294E43342060FBF08ECD292AFE2
:010B440006AA
:010B4500228D
:100016000203CBE86480F8E933E83360110460F04A
:10002600ED33EC337009E8FCE9FDEAFEEBFF220450
:1000360060DED3EB9FEA9EE99DE8C2E78CF0C2F74B
:1000460095F0400CE8CCF8E9CDF9EACEFAEBCFFB17
:1000560012039685D0F05804700320D5B3E80470D7
:10006600075002B2D50203D592D5EC0460F7E4CC72
:10007600C0E0C398F8603B94186008400DD0E0FBE0
:100086000203ADE4FBFAC9FC8028E830E406E4C9C3
:10009600FBE4CAFCE830E305E4C9CACBFCE8540734
:1000A6006010F8C3E913F9EA13FAEB13FBEC13FC3F
:1000B600D8F130F52FC3E49CFCEF9BFFEE9AFEEDE2
:1000C60099FDD0E0FBEF4E4D4C701222DB0302038C
:1000D600D2EC2CFCEF33FFEE33FEED33FDED30E7D3
:1000E600EB0203ADEF2BFFEE3AFEED39FDD0E0FB60
:1000F60050130BBB00030203D5ED13FDEE13FEEF09
:0801060013FFEC13FC0203AD32
:10010E00EC4D6011E8497017ED33EC3304600DE4EB
:10011E00FCFFFEFD22E933E8330470F80203CB1234
:10012E00039658046009E4CC248150062850090235
:10013E0003D52840030203D2C0E0EB4A7044B980D5
:10014E0006D0E0FB0203C1EF4E701CBD8008EBFF32
:10015E00EAFEE9FD80EBE98DF0A4FEE5F00201F781
:10016E00E9CDF9EAFEEBFFEF89F0A4FCE5F0CE89CC
:10017E00F0A42EFFE435F0CD89F0A42DFEE435F089
:10018E008067EF4E7005BD80D780C3EF8BF0A4ACB7
:10019E00F0EE8BF0A42CFCE435F0F8EF8AF0A42CF2
:1001AE00E5F038FCE433CB8DF0A42CFCE5F03BF805
:1001BE00EE8AF0A42CFCE5F038F8E433CF89F0A4F5
:1001CE002CFCE5F038CF3400CE89F0A42FFFE5F0FB
:1001DE003EFEE433C98DF0A42EFEE5F039CD8AF053
:1001EE00A42FFFE5F03EFEE43DFD33D0E0FB5007CB
:1001FE000BBB000F0203D5EC2CFCEF33FFEE33FEEE
:06020E00ED33FD0203AD1B
:100214000203D5EC5D046005E8590470030203CBC6
:10022400120396580460F6EC4860F2EC7004FDFE8C
:10023400FF22C860DB2481C85009C39860025006BD
:100244000203D29850CAF582E9294B4A7005AB8261
:100254000203C175F0007C1A7880C3EF9BEE9AED1F
:1002640099400DC3EF9BFFEE9AFEED99FDE842F035
:10027400DC23ACF0D0E0FFD0E0FED0E0FDAB822088
:10028400E7101BEB60BAEC2CFCEF33FFEE33FEED12
:1002940033FD0203ADE803F830E705C0F075F00064
:1002A400EF2FFFEE33FEED33FD40B830E7C280AAF6
:1002B40074F8CC6480CCC86480C8F582046043C3FD
:1002C400EB9FF5F0EA9E42F0E99D42F0E89C45F090
:1002D40060305018E5825FFFE582F42B5582FB50B5
:1002E400210ABA001D09B90019088016E5825BFBD2
:1002F400E582F42F5582FF50090EBE00050DBD00A6
:10030400010CC3EB9FF5F0EA9E42F0E99D42F0E850
:0D0314009C45F06007CC4820E701B3EC22C7
:1003210075F020800E75F010800575F0087D007E57
:10033100007F003392D530D5031203F2EC33401025
:10034100EF33FFEE33FEED33FDEC33FCD5F0ED2260
:0E035100E5F0247EA2D513CC92E7CDCEFF229C
:10035F00EDD2E7CD33EC3392D524814006E4FFFE96
:10036F00FDFC22FCE4CFCECDCC24E0501174FF80F5
:10037F00EDC3CC13CCCD13CDCE13CECF13CF047092
:07038F00F030D5DE0203F29D
:10039600E9D2E7C933E833F892D5EDD2E7CD33ECAD
:0703A60033FC5002B2D52226
:1003AD00EC30E7100FBF000C0EBE00080DBD0004B1
:1003BD000BEB6014A2D5EB13FCED92E7FD2274FF5D
:1003CD00FCFDFEFF22E480F8A2D574FF13FC7D80B6
:0303DD00E480EFCA
:03000000020910E2
:0C091000787FE4F6D8FD7581720209576B
:1003E000EF8DF0A4A8F0CF8CF0A428CE8DF0A42E31
:0203F000FE22EB
:0E03F200C3E49FFFE49EFEE49DFDE49CFC221C
:0C040000E6FC08E6FD08E6FE08E6FF2228
:0D040C00E6FB08E6F908E6FA08E6CBF82260
:10091C00020A15E493A3F8E493A34003F68001F2D2
:10092C0008DFF48029E493A3F85407240CC8C333DC
:10093C00C4540F4420C8834004F456800146F6DFAB
:10094C00E4800B0102040810204080900AE4E47E4D
:10095C00019360BCA3FF543F30E509541FFEE493A0
:10096C00A360010ECF54C025E060A840B8E493A367
:10097C00FAE493A3F8E493A3C8C582C8CAC583CA92
:10098C00F0A3C8C582C8CAC583CADFE9DEE780BE4A
:010B230000D1
:00000001FF
