:100E7900E4FDEDC39FEE6480F8748098500FE4FCA4
:0D0E8900E4FB0BBB0AFC0CBC50F60D80E531
:010E96002239
:100D0600E4F527F528E528AE277802C333CE33CE9F
:100D1600D8F924D1F58274043EF5831204751203C2
:100D26005FAD07E528AE277802C333CE33CED8F9B8
:100D36002420F582E43EF583EDF00528E5287002CF
:0A0D46000527B440C0E527B401BB47
:010D50002280
:100C4A00E4F50FAF0F120E2C7414250FF582E4335E
:100C5A00F583EFF0050FE50FC3940440E6E4F50FC2
:100C6A00E50F2418FF120E2C7418250FF582E433B1
:100C7A00F583EFF0050FE50FC3940440E3E4F50FA5
:100C8A00E50F241CFF120E2C741C250FF582E43389
:0D0C9A00F583EFF0050FE50FC3940440E370
:010CA700222A
:100CA800E4F52174142521F582E433F583E0FDAFE2
:100CB80021120E570521E521C3940440E6E4F521ED
:100CC800E5212418FF74182521F582E433F583E023
:100CD800FD120E570521E521C3940440E3E4F521F4
:100CE800E521241CFF741C2521F582E433F583E0FB
:0D0CF800FD120E570521E521C3940440E3D1
:010D050022CB
:100D5100C2AF75B0FF7590FF120EF6900000E4F07F
:100D6100A3F0A3F0A3F0A3F090000804F090000C0E
:100D710004F0900014E4F090001804F090001C04BA
:100D8100F0120D06758901E4F58A758CB8D2A9C2F5
:0A0D9100B9D28CD2AFD2AAD28A22C6
:05000E008F0E8D0B2296
:10085200EDC394004006EDD394044002E4FDEF148E
:1008620060440460030208E7900014E09004CE9311
:10087200900000F0900015E09004B993900001F010
:10088200900016E09004C493900002F0900017E0EC
:100892009004B993900003F020000302092AED703E
:1008A2000302092A8036900018E09004CE9390004B
:1008B20000F0900019E09004B993900001F09000CC
:1008C2001AE09004B993900002F090001BE09004AB
:1008D200B993900003F030004FED604C9004C3E4F4
:1008E200938D82803F90001CE09004CE9390000094
:1008F200F090001DE09004C493900001F090001E5F
:10090200E09004B993900002F090001FE09004B9C7
:1009120093900003F0300010ED600D9004C3E49357
:10092200AE058E82758300F0E4FF8F82758300E04E
:10093200F527E4FEC296D2960EBE08F80FBF04EA6F
:04094200D295C295F3
:01094600228E
:100A2800EF14602C047052900004E09004CE939070
:100A38000000F0900005E09004B993900001F09058
:100A48000006E09004C493900002F09000078050E4
:100A5800900008E09004CE93900000F0900009E028
:100A68009004B993900001F090000AE09004B993C3
:100A7800900002F090000B802790000CE09004CECC
:100A880093900000F090000DE09004C49390000152
:100A9800F090000EE09004B993900002F090000FDF
:100AA800E09004B993900003F0E4FF8F827583000F
:100AB800E0F527E4FEC296D2960EBE08F80FBF04F2
:050AC800EAD295C29581
:010ACD002206
:10061100900006E075F00AA4FDACF0900005E075CD
:10062100F064A42DFFE5F03CFE900007E07C002F74
:10063100F528EC3EF52790000AE075F00AA4FDAC20
:10064100F0900009E075F064A42DFFE5F03CFE9008
:10065100000BE07C002FF52AEC3EF52990000EE01E
:1006610075F00AA4FDACF090000DE075F064A42DC6
:10067100FFE5F03CFE90000FE07C002FF52CEC3EF6
:10068100F52B900016E075F00AA4FDACF090001572
:10069100E075F064A42DFFE5F03CFE900017E07CCE
:1006A100002FF52EEC3EF52D90001AE075F00AA40E
:1006B100FDACF0900019E075F064A42DFFE5F03C6D
:1006C100FE90001BE07C002FF530EC3EF52F9000F2
:1006D1001EE075F00AA4FDACF090001DE075F06419
:1006E100A42DFFE5F03CFE90001FE07C002FFFEC05
:1006F1003EFEC3E528952EE527952D5014C3E52A26
:100701009530E529952F5009C3E52C9FE52B9E4097
:100711002DC3E528952EE527952D4004E4FD801A8B
:10072100C3E52A9530E529952F40047D01800BC34F
:10073100E52C9FE52B9E400C7D027F018003E4FDAB
:04074100FF12000E95
:010745002291
:060947008B378A38893964
:10094D00E4F53AC3E53A9440748094814003020A79
:10095D0025AB37AA38A93912045575F004E53AA428
:10096D0024D1F582E5F03404F5831204851202B426
:10097D0060054003020A20AB37AA38A93912045585
:10098D0075F004E53AA424D1F582E5F03404F5833D
:10099D00120485120019C004C005C006C00775F009
:1009AD0004E53AA424D5F582E5F03404F583120468
:1009BD008575F004E53AA424D1F582E5F03404F50B
:1009CD0083120475120019A804A905AA06AB07D055
:1009DD0007D006D005D004120217E4FBFA79A078EF
:1009ED004012010EC004C005C006C007AF3A7E001C
:1009FD007C007D051203E0AC06AD07E4120326D0A2
:100A0D0003D002D001D00012001D12035F8E3B8F68
:0A0A1D003C8005053A020950AF3C89
:010A270022AC
:020746008F27FB
:10074800120DD18F28E5271470030207D414700303
:100758000207E3240260030207E9AC28E412032B32
:10076800E4FBFA79A0783C12010E8F2E8E2D8D2C89
:100778008C2B7B007A40791C78461202178F328EB8
:10078800318D308C2FAB2EAA2DA92CA82BE4FFFE7F
:100798007DA07C40120019AB32AA31A930A82F12D3
:1007A80002178F368E358D348C33E4FBFA797A78DC
:1007B800441202178F368E358D348C337B007A00C5
:1007C80079331209477529008F2A8015E528247185
:1007D80075F00584752900F52A8006752900852895
:1007E8002AAE29AF2A7C007D641203F275F004E575
:1007F80027A42405F582E435F0F583EFF0AE29AFA0
:100808002A7C007D0A1203F27C007D0A1203F2752D
:10081800F004E527A42406F582E435F0F583EDF02D
:10082800AE29AF2A7C007D641203F27E007F0ACFD6
:10083800CDCFCECCCE1203F275F004E527A4240761
:09084800F582E435F0F583EDF0D2
:010851002284
:100B7100E4F526120D51E509704FFF1207461206E2
:100B810011E4FF120A28E50D6007E509B401F780B9
:100B910038050D7F011207461206117F01120A283E
:100BA100E50D6007E509B401F7801E050D7F02120E
:100BB10007461206117F02120A28E50D6007E509B2
:100BC100B401F78004050D80ADE4FDFF12000EE5D0
:100BD1000A75F00384AFF0E50C75F00384E5F004C9
:060BE100FD120852809095
:1004B900149F381A9352501F1012FF048F280A8371
:1004C90042400F000274F4704202031241FD883168
:1004D90041F7388641F1158141EB1DE741E550B1FE
:1004E90041DFAC0841DA2F1B41D4D8AE41CFA75226
:1004F90041CA9A6B41C5B05541C0E87341BC4189B5
:1005090041B7BA9341B352BD41AF093741AADCFBA8
:1005190041A6CD3641A2D8E2419EFF63419B401AD4
:1005290041979A0241940C4A41909687418D37E947
:100539004189EFD24186BDA54183A0904180982B86
:10054900417B47454175851F416FE910416A71DE5D
:1005590041651DE7415FED29415ADE014155EF9E95
:10056900415120C5414C71764147E00D41436BBA79
:10057900413F147B413AD8454136B7804132B08A70
:10058900412EC361412AEF35412732CA41238E22C8
:1005990041200000411C8866411926184115D917C8
:1005A9004112A090410F7BB3410C6A7F41096C2233
:1005B900410680344103A64C4100DD9840FC4B5E66
:1005C90040F6FD2240F1CED940ECC08340E7D07D12
:1005D90040E2FDF440DE481740D9AEE640D530BED2
:1005E90040D0CD9F40CC84B640C8553240C43E422D
:1005F90040C03F1440BC587940B887FD40B4CD9FF6
:0806090040B1295F40AD9A6B7E
:03000B00020BE7FE
:100BE700C0E0C0F0C0D0758A00758CB8050DE50D62
:100BF70075F01484E5F07002B200E50DB464077572
:100C07000D00B2010508E50E7004D2B4802EE50B85
:100C170014601514602024027022E50D75F0148409
:100C2700E5F07018B2B48014E50D75F03C84E5F07A
:100C3700700AB2B48006E50D7002B2B4D0D0D0F01D
:030C4700D0E032C8
:03001300020ACE10
:0D0ACE00C0E0C0F0C083C082C0D075D01061
:100ADB0030B303020B667F147E00120E7920B37BBA
:100AEB00908000E0540F24F9606524FC601C24FE08
:100AFB006010147066050A750901E4FDFF12000E03
:100B0B008059E5096055050C8051E509604DE50AF2
:100B1B0075F00384E5F075F004A4FFAEF0E50C75F9
:100B2B00F003847C00EF25F0FFEC3EFE74152FF5EF
:100B3B0082E43EF583E0FD0DAC15EDD39409400244
:100B4B007D0074152FF582E43EF583EDF0800C7576
:0B0B5B000A00750C00750900120CA8C0
:0B0B6600D0D0D082D083D0F0D0E0329D
:06000300E4FF0FBF0FFC3B
:0100090022D4
:100EB200EF14600C14600E2402700EC297C2B522A9
:0A0EC200D297C2B522C297D2B52222
:020DD100AD076C
:100DD300C292120003AF05120EB2120003E4FDEE3D
:100DE30025E0FEC293120003D293120003A294E4FF
:0B0DF3003342060DBD08E8D292AF06A7
:010DFE0022D2
:0A0EF600D290120003D29102000313
:0F0ECC00D291120003D290120003C291020003D0
:0F0EDB00C291120003D290120003D291020003C1
:100E9700E4F524D29012000330910BE524C394FFAC
:0B0EA7005004052480F2C290020003FA
:100DFF008F25E4F524E52525E0F525C290120003A3
:100E0F009291120003D2901200030524E524C3949B
:0D0E1F000840E2C290120003D291020003CD
:100D9B00C290120003D291E4F518D29012000330E6
:100DAB0091057519018003E4F519E51A25E045193C
:100DBB00F51AC2901200030518E518C3940840DA1F
:050DCB00120003AF1A45
:010DD0002200
:100E57008F228D23120ECC7FA0120DFF120E97AF9B
:100E670022120DFF120E97AF23120DFF120E9702DB
:020E77000EDB90
:020E2C008F1B1A
:100E2E00120ECC7FA0120DFF120E97AF1B120DFFEC
:100E3E00120E97120ECC7FA1120DFF120E97120DED
:080E4E009B8F1C120EDBAF1C90
:010E56002279
:100016000203CBE86480F8E933E83360110460F04A
:10002600ED33EC337009E8FCE9FDEAFEEBFF220450
:1000360060DED3EB9FEA9EE99DE8C2E78CF0C2F74B
:1000460095F0400CE8CCF8E9CDF9EACEFAEBCFFB17
:1000560012039685D0F05804700320D5B3E80470D7
:10006600075002B2D50203D592D5EC0460F7E4CC72
:10007600C0E0C398F8603B94186008400DD0E0FBE0
:100086000203ADE4FBFAC9FC8028E830E406E4C9C3
:10009600FBE4CAFCE830E305E4C9CACBFCE8540734
:1000A6006010F8C3E913F9EA13FAEB13FBEC13FC3F
:1000B600D8F130F52FC3E49CFCEF9BFFEE9AFEEDE2
:1000C60099FDD0E0FBEF4E4D4C701222DB0302038C
:1000D600D2EC2CFCEF33FFEE33FEED33FDED30E7D3
:1000E600EB0203ADEF2BFFEE3AFEED39FDD0E0FB60
:1000F60050130BBB00030203D5ED13FDEE13FEEF09
:0801060013FFEC13FC0203AD32
:10010E00EC4D6011E8497017ED33EC3304600DE4EB
:10011E00FCFFFEFD22E933E8330470F80203CB1234
:10012E00039658046009E4CC248150062850090235
:10013E0003D52840030203D2C0E0EB4A7044B980D5
:10014E0006D0E0FB0203C1EF4E701CBD8008EBFF32
:10015E00EAFEE9FD80EBE98DF0A4FEE5F00201F781
:10016E00E9CDF9EAFEEBFFEF89F0A4FCE5F0CE89CC
:10017E00F0A42EFFE435F0CD89F0A42DFEE435F089
:10018E008067EF4E7005BD80D780C3EF8BF0A4ACB7
:10019E00F0EE8BF0A42CFCE435F0F8EF8AF0A42CF2
:1001AE00E5F038FCE433CB8DF0A42CFCE5F03BF805
:1001BE00EE8AF0A42CFCE5F038F8E433CF89F0A4F5
:1001CE002CFCE5F038CF3400CE89F0A42FFFE5F0FB
:1001DE003EFEE433C98DF0A42EFEE5F039CD8AF053
:1001EE00A42FFFE5F03EFEE43DFD33D0E0FB5007CB
:1001FE000BBB000F0203D5EC2CFCEF33FFEE33FEEE
:06020E00ED33FD0203AD1B
:100214000203D5EC5D046005E8590470030203CBC6
:10022400120396580460F6EC4860F2EC7004FDFE8C
:10023400FF22C860DB2481C85009C39860025006BD
:100244000203D29850CAF582E9294B4A7005AB8261
:100254000203C175F0007C1A7880C3EF9BEE9AED1F
:1002640099400DC3EF9BFFEE9AFEED99FDE842F035
:10027400DC23ACF0D0E0FFD0E0FED0E0FDAB822088
:10028400E7101BEB60BAEC2CFCEF33FFEE33FEED12
:1002940033FD0203ADE803F830E705C0F075F00064
:1002A400EF2FFFEE33FEED33FD40B830E7C280AAF6
:1002B40074F8CC6480CCC86480C8F582046043C3FD
:1002C400EB9FF5F0EA9E42F0E99D42F0E89C45F090
:1002D40060305018E5825FFFE582F42B5582FB50B5
:1002E400210ABA001D09B90019088016E5825BFBD2
:1002F400E582F42F5582FF50090EBE00050DBD00A6
:10030400010CC3EB9FF5F0EA9E42F0E99D42F0E850
:0D0314009C45F06007CC4820E701B3EC22C7
:1003210075F020800E75F010800575F0087D007E57
:10033100007F003392D530D503120447EC334010CF
:10034100EF33FFEE33FEED33FDEC33FCD5F0ED2260
:0E035100E5F0247EA2D513CC92E7CDCEFF229C
:10035F00EDD2E7CD33EC3392D524814006E4FFFE96
:10036F00FDFC22FCE4CFCECDCC24E0501174FF80F5
:10037F00EDC3CC13CCCD13CDCE13CECF13CF047092
:07038F00F030D5DE02044747
:10039600E9D2E7C933E833F892D5EDD2E7CD33ECAD
:0703A60033FC5002B2D52226
:1003AD00EC30E7100FBF000C0EBE00080DBD0004B1
:1003BD000BEB6014A2D5EB13FCED92E7FD2274FF5D
:1003CD00FCFDFEFF22E480F8A2D574FF13FC7D80B6
:0303DD00E480EFCA
:03000000020EEA03
:0C0EEA00787FE4F6D8FD75813C020B71A6
:1003E000EF8DF0A4A8F0CF8CF0A428CE8DF0A42E31
:0203F000FE22EB
:1003F200BC000BBE0029EF8DF084FFADF022E4CCEF
:10040200F875F008EF2FFFEE33FEEC33FCEE9DECB7
:10041200984005FCEE9DFE0FD5F0E9E4CEFD22EDFD
:10042200F8F5F0EE8420D21CFEADF075F008EF2F47
:10043200FFED33FD4007985006D5F0F222C398FD38
:050442000FD5F0EA22D5
:0E044700C3E49FFFE49EFEE49DFDE49CFC22C6
:10045500BB010789828A830204A15005E9F80204D9
:1004650095BBFE05E9F80204AD89828A830204750D
:10047500E493FC740193FD740293FE740393FF22CD
:10048500E493F8740193F9740293FA740393FB22CD
:0C049500E6FC08E6FD08E6FE08E6FF2293
:0C04A100E0FCA3E0FDA3E0FEA3E0FF22CE
:0C04AD00E2FC08E2FD08E2FE08E2FF228B
:00000001FF
