:10048C00E4FDEDC39FEE6480F8748098500FE4FC9B
:0D049C00E4FB0BBB0AFC0CBC50F60D80E528
:0104A9002230
:10038100C2AF75B0FF7590FF900000E4F0A3F0A339
:10039100F0A3F0A3F0A304F0A304F0A304F0A3746A
:1003A10001F0A3E4F0A3F0A304F0A304F0A3740408
:1003B100F0A37409F0A37405F0A3E4F0A3F0A3740F
:1003C10002F0A304F0A37401F0A3E4F0A3F0A3F0FE
:1003D100A37402F0A3E4F0A37409F0A37405F0750B
:1003E1008901E4F58A758CB8D2A9C2B9D28CD2AF91
:0503F100D2AAD28A220D
:10042F00EF7003D2B422ED14601414601E24027016
:10043F0020E50B75F01484E5F07016B2B422E50BCD
:10044F0075F03C84E5F07009B2B422E50B7002B28E
:02045F00B422C5
:10014B00EDC394004006EDD394044002E4FDEF149C
:10015B0060440460030201E0900010E09004BF9340
:10016B00900000F0900011E09004AA93900001F031
:10017B00900012E09004B593900002F0900013E011
:10018B009004AA93900003F0200003020223ED7069
:10019B00030202238036900014E09004BF9390007A
:1001AB0000F0900015E09004AA93900001F09000ED
:1001BB0016E09004AA93900002F0900017E09004D0
:1001CB00AA93900003F030004FED604C9004B4E420
:1001DB00938D82803F900018E09004BF93900000B5
:1001EB00F0900019E09004B593900001F090001A84
:1001FB00E09004AA93900002F090001BE09004AAF8
:10020B0093900003F0300010ED600D9004B4E49374
:10021B00AE058E82758300F0E4FF8F82758300E05C
:10022B00F522E4FEC296D2960EBE08F80FBF04EA82
:04023B00D295C29501
:01023F00229C
:10024000EF14602C047052900004E09004BF93906F
:100250000000F0900005E09004AA93900001F09057
:100260000006E09004B593900002F09000078050E3
:10027000900008E09004BF93900000F0900009E027
:100280009004AA93900001F090000AE09004AA93D1
:10029000900002F090000B802790000CE09004BFCB
:1002A00093900000F090000DE09004B59390000151
:1002B000F090000EE09004AA93900002F090000FDE
:1002C000E09004AA93900003F0E4FF8F827583000E
:1002D000E0F522E4FEC296D2960EBE08F80FBF04E7
:0502E000EAD295C29571
:0102E50022F6
:10001600900006E075F00AA4FDACF0900005E075CE
:10002600F064A42DFFE5F03CFE900007E07C002F75
:10003600F523EC3EF52290000AE075F00AA4FDAC2B
:10004600F0900009E075F064A42DFFE5F03CFE9009
:10005600000BE07C002FF525EC3EF52490000EE029
:1000660075F00AA4FDACF090000DE075F064A42DC7
:10007600FFE5F03CFE90000FE07C002FF527EC3EFC
:10008600F526900012E075F00AA4FDACF090001180
:10009600E075F064A42DFFE5F03CFE900013E07CD3
:1000A600002FF529EC3EF528900016E075F00AA41D
:1000B600FDACF0900015E075F064A42DFFE5F03C72
:1000C600FE900017E07C002FF52BEC3EF52A900001
:1000D6001AE075F00AA4FDACF0900019E075F06422
:1000E600A42DFFE5F03CFE90001BE07C002FFFEC0A
:1000F6003EFEC3E5239529E52295285014C3E52540
:10010600952BE524952A5009C3E5279FE5269E40B1
:100116002DC3E5239529E52295284004E4FD801AA0
:10012600C3E525952BE524952A40047D01800BC364
:10013600E5279FE5269E400C7D027F018003E4FDB6
:04014600FF12042F71
:01014A002292
:0303F6001203816E
:1003F900E508701B7F01FE12048C1200163001F013
:10040900050CE50C75F00384AFF012024080E1E5BC
:100419000975F00384AFF0E50A75F00384E5F0048B
:04042900FD12014B74
:02042D0080CA83
:1004AA00149F381A9352501F1012FF048F280A8380
:0804BA0042400F000274F470CF
:03000B000204618B
:10046100C0E0C0F0C0D0758A00758CB8050BE50BF3
:1004710075F01484E5F07002B200E50BB464057503
:0B0481000B00B201D0D0D0F0D0E03270
:030013000202E600
:0D02E600C0E0C0F0C083C082C0D075D01051
:1002F300908000E0F5217FC87E0012048CE5215434
:100303000F24F9606524FC601C24FE6010147063E4
:100313000509750801E4FDFF12042F8056E5086006
:1003230052050A804EE508604AE50975F00384E545
:10033300F075F004A4FFAEF0E50A75F003847C00C9
:10034300EF25F0FFEC3EFE74112FF582E43EF583BA
:10035300E0FD0DAC15EDD3940940027D0074112F1F
:10036300F582E43EF583EDF08009750900750A0016
:030373007508000A
:0B037600D0D0D082D083D0F0D0E03295
:030000000204C235
:0C04C200787FE4F6D8FD75812B0203F66C
:00000001FF
